{
  "contractName": "Certificate",
  "abi": [
    {
      "anonymous": false,
      "inputs": [
        {
          "indexed": false,
          "internalType": "address",
          "name": "sndr",
          "type": "address"
        },
        {
          "indexed": false,
          "internalType": "bool",
          "name": "b",
          "type": "bool"
        }
      ],
      "name": "dataSent",
      "type": "event"
    },
    {
      "constant": true,
      "inputs": [
        {
          "internalType": "address",
          "name": "",
          "type": "address"
        }
      ],
      "name": "accnt",
      "outputs": [
        {
          "internalType": "bool",
          "name": "",
          "type": "bool"
        }
      ],
      "payable": false,
      "stateMutability": "view",
      "type": "function"
    },
    {
      "constant": false,
      "inputs": [],
      "name": "sendData",
      "outputs": [],
      "payable": false,
      "stateMutability": "nonpayable",
      "type": "function"
    }
  ],
  "bytecode": "0x608060405234801561001057600080fd5b506101bf806100206000396000f3fe608060405234801561001057600080fd5b50600436106100365760003560e01c806337fa49ac1461003b5780638911be3014610097575b600080fd5b61007d6004803603602081101561005157600080fd5b81019080803573ffffffffffffffffffffffffffffffffffffffff1690602001909291905050506100a1565b604051808215151515815260200191505060405180910390f35b61009f6100c1565b005b60006020528060005260406000206000915054906101000a900460ff1681565b60016000803373ffffffffffffffffffffffffffffffffffffffff1673ffffffffffffffffffffffffffffffffffffffff16815260200190815260200160002060006101000a81548160ff0219169083151502179055507f958ad4f2f1ac0e7fc4c02e703f4d1fade67daa50ef63f2b70164c8d155b589e0336001604051808373ffffffffffffffffffffffffffffffffffffffff1673ffffffffffffffffffffffffffffffffffffffff168152602001821515151581526020019250505060405180910390a156fea265627a7a72315820ea7fdf7f58505c9912f9892135701e643f764fdb33afde6726174fc42802287a64736f6c63430005100032",
  "source": "pragma solidity >=0.4.21 <0.6.0;\r\n\r\ncontract Certificate {\r\n    mapping(address => bool) public accnt;\r\n    event dataSent(address sndr, bool b);\r\n\r\n\tstruct College {\r\n        address owner;\r\n\t}\r\n\r\n\tfunction sendData() public {\r\n        \r\n        accnt[msg.sender] = true;\r\n\r\n      emit dataSent(msg.sender,true);\r\n\t}\r\n}\r\n",
  "sourcePath": "D:\\Downloads\\Programs\\certificate\\src\\contracts\\Certificate.sol",
  "compiler": {
    "name": "solc",
    "version": "0.5.16+commit.9c3226ce.Emscripten.clang"
  },
  "schemaVersion": "3.1.0",
  "updatedAt": "2020-05-08T18:10:47.374Z",
  "networkType": "ethereum",
  "devdoc": {
    "methods": {}
  },
  "userdoc": {
    "methods": {}
  }
}